{
  "contractName": "TokenFarm",
  "abi": [
    {
      "inputs": [
        {
          "internalType": "address",
          "name": "_daiToken",
          "type": "address"
        },
        {
          "internalType": "address",
          "name": "_guruToken",
          "type": "address"
        }
      ],
      "stateMutability": "nonpayable",
      "type": "constructor"
    },
    {
      "inputs": [
        {
          "internalType": "address",
          "name": "",
          "type": "address"
        }
      ],
      "name": "isStaked",
      "outputs": [
        {
          "internalType": "bool",
          "name": "",
          "type": "bool"
        }
      ],
      "stateMutability": "view",
      "type": "function",
      "constant": true
    },
    {
      "inputs": [
        {
          "internalType": "address",
          "name": "",
          "type": "address"
        }
      ],
      "name": "isStaking",
      "outputs": [
        {
          "internalType": "bool",
          "name": "",
          "type": "bool"
        }
      ],
      "stateMutability": "view",
      "type": "function",
      "constant": true
    },
    {
      "inputs": [],
      "name": "name",
      "outputs": [
        {
          "internalType": "string",
          "name": "",
          "type": "string"
        }
      ],
      "stateMutability": "view",
      "type": "function",
      "constant": true
    },
    {
      "inputs": [],
      "name": "sign",
      "outputs": [
        {
          "internalType": "string",
          "name": "",
          "type": "string"
        }
      ],
      "stateMutability": "view",
      "type": "function",
      "constant": true
    },
    {
      "inputs": [
        {
          "internalType": "address",
          "name": "",
          "type": "address"
        }
      ],
      "name": "stakedAmount",
      "outputs": [
        {
          "internalType": "uint256",
          "name": "",
          "type": "uint256"
        }
      ],
      "stateMutability": "view",
      "type": "function",
      "constant": true
    },
    {
      "inputs": [
        {
          "internalType": "uint256",
          "name": "",
          "type": "uint256"
        }
      ],
      "name": "stakers",
      "outputs": [
        {
          "internalType": "address",
          "name": "",
          "type": "address"
        }
      ],
      "stateMutability": "view",
      "type": "function",
      "constant": true
    },
    {
      "inputs": [],
      "name": "DaiAmount",
      "outputs": [
        {
          "internalType": "uint256",
          "name": "",
          "type": "uint256"
        }
      ],
      "stateMutability": "view",
      "type": "function",
      "constant": true
    },
    {
      "inputs": [],
      "name": "GuruAmount",
      "outputs": [
        {
          "internalType": "uint256",
          "name": "",
          "type": "uint256"
        }
      ],
      "stateMutability": "view",
      "type": "function",
      "constant": true
    },
    {
      "inputs": [],
      "name": "MyDaiAmount",
      "outputs": [
        {
          "internalType": "uint256",
          "name": "",
          "type": "uint256"
        }
      ],
      "stateMutability": "view",
      "type": "function",
      "constant": true
    },
    {
      "inputs": [],
      "name": "MyGuruAmount",
      "outputs": [
        {
          "internalType": "uint256",
          "name": "",
          "type": "uint256"
        }
      ],
      "stateMutability": "view",
      "type": "function",
      "constant": true
    },
    {
      "inputs": [
        {
          "internalType": "uint256",
          "name": "_amount",
          "type": "uint256"
        }
      ],
      "name": "stakeTokens",
      "outputs": [],
      "stateMutability": "payable",
      "type": "function",
      "payable": true
    },
    {
      "inputs": [],
      "name": "getRewards",
      "outputs": [],
      "stateMutability": "nonpayable",
      "type": "function"
    },
    {
      "inputs": [],
      "name": "getMyRewards",
      "outputs": [],
      "stateMutability": "nonpayable",
      "type": "function"
    },
    {
      "inputs": [],
      "name": "_MyRewardRatio",
      "outputs": [
        {
          "internalType": "uint256",
          "name": "",
          "type": "uint256"
        }
      ],
      "stateMutability": "view",
      "type": "function",
      "constant": true
    },
    {
      "inputs": [
        {
          "internalType": "address",
          "name": "_receipent",
          "type": "address"
        }
      ],
      "name": "_RewardRatio",
      "outputs": [
        {
          "internalType": "uint256",
          "name": "",
          "type": "uint256"
        }
      ],
      "stateMutability": "view",
      "type": "function",
      "constant": true
    },
    {
      "inputs": [],
      "name": "unstakeDai",
      "outputs": [],
      "stateMutability": "nonpayable",
      "type": "function"
    }
  ],
  "bytecode": "0x60806040526040518060400160405280601281526020017f53616b7368616d20546f6b656e204661726d000000000000000000000000000081525060009080519060200190620000519291906200019e565b506040518060400160405280600381526020017f4454460000000000000000000000000000000000000000000000000000000000815250600190805190602001906200009f9291906200019e565b50348015620000ad57600080fd5b506040516200194e3803806200194e8339818101604052810190620000d3919062000265565b81600260006101000a81548173ffffffffffffffffffffffffffffffffffffffff021916908373ffffffffffffffffffffffffffffffffffffffff16021790555080600360006101000a81548173ffffffffffffffffffffffffffffffffffffffff021916908373ffffffffffffffffffffffffffffffffffffffff16021790555033600460006101000a81548173ffffffffffffffffffffffffffffffffffffffff021916908373ffffffffffffffffffffffffffffffffffffffff160217905550505062000359565b828054620001ac90620002da565b90600052602060002090601f016020900481019282620001d057600085556200021c565b82601f10620001eb57805160ff19168380011785556200021c565b828001600101855582156200021c579182015b828111156200021b578251825591602001919060010190620001fe565b5b5090506200022b91906200022f565b5090565b5b808211156200024a57600081600090555060010162000230565b5090565b6000815190506200025f816200033f565b92915050565b600080604083850312156200027957600080fd5b600062000289858286016200024e565b92505060206200029c858286016200024e565b9150509250929050565b6000620002b382620002ba565b9050919050565b600073ffffffffffffffffffffffffffffffffffffffff82169050919050565b60006002820490506001821680620002f357607f821691505b602082108114156200030a576200030962000310565b5b50919050565b7f4e487b7100000000000000000000000000000000000000000000000000000000600052602260045260246000fd5b6200034a81620002a6565b81146200035657600080fd5b50565b6115e580620003696000396000f3fe6080604052600436106100f25760003560e01c80635cd798361161008a5780637547c7a3116100595780637547c7a3146102f5578063f993185514610311578063f9fe372b1461034e578063fd5e6dd114610379576100f2565b80635cd79836146102395780635faeb30f146102505780636177fd181461027b5780636f49712b146102b8576100f2565b806315f097a9116100c657806315f097a9146101a15780632ca15122146101cc57806337a63200146101f75780635a7b28011461020e576100f2565b80628c93d6146100f75780630572b0cc1461012257806306fdde03146101395780630e1043d014610164575b600080fd5b34801561010357600080fd5b5061010c6103b6565b604051610119919061131e565b60405180910390f35b34801561012e57600080fd5b5061013761046d565b005b34801561014557600080fd5b5061014e610658565b60405161015b91906112bc565b60405180910390f35b34801561017057600080fd5b5061018b6004803603810190610186919061109c565b6106e6565b604051610198919061131e565b60405180910390f35b3480156101ad57600080fd5b506101b6610740565b6040516101c3919061131e565b60405180910390f35b3480156101d857600080fd5b506101e16107f7565b6040516101ee91906112bc565b60405180910390f35b34801561020357600080fd5b5061020c610885565b005b34801561021a57600080fd5b50610223610a9f565b604051610230919061131e565b60405180910390f35b34801561024557600080fd5b5061024e610b56565b005b34801561025c57600080fd5b50610265610c0f565b604051610272919061131e565b60405180910390f35b34801561028757600080fd5b506102a2600480360381019061029d919061109c565b610c67565b6040516102af91906112a1565b60405180910390f35b3480156102c457600080fd5b506102df60048036038101906102da919061109c565b610c87565b6040516102ec91906112a1565b60405180910390f35b61030f600480360381019061030a91906110ee565b610ca7565b005b34801561031d57600080fd5b506103386004803603810190610333919061109c565b610f3a565b604051610345919061131e565b60405180910390f35b34801561035a57600080fd5b50610363610f52565b604051610370919061131e565b60405180910390f35b34801561038557600080fd5b506103a0600480360381019061039b91906110ee565b611009565b6040516103ad9190611226565b60405180910390f35b600080600360009054906101000a900473ffffffffffffffffffffffffffffffffffffffff1673ffffffffffffffffffffffffffffffffffffffff166370a08231336040518263ffffffff1660e01b81526004016104149190611226565b60206040518083038186803b15801561042c57600080fd5b505afa158015610440573d6000803e3d6000fd5b505050506040513d601f19601f820116820180604052508101906104649190611117565b90508091505090565b600460009054906101000a900473ffffffffffffffffffffffffffffffffffffffff1673ffffffffffffffffffffffffffffffffffffffff163373ffffffffffffffffffffffffffffffffffffffff16146104c757600080fd5b60005b60088054905081101561065557600060088281548110610513577f4e487b7100000000000000000000000000000000000000000000000000000000600052603260045260246000fd5b9060005260206000200160009054906101000a900473ffffffffffffffffffffffffffffffffffffffff1690506000600560008373ffffffffffffffffffffffffffffffffffffffff1673ffffffffffffffffffffffffffffffffffffffff16815260200190815260200160002054111561064157600360009054906101000a900473ffffffffffffffffffffffffffffffffffffffff1673ffffffffffffffffffffffffffffffffffffffff1663a9059cbb826105d0846106e6565b6040518363ffffffff1660e01b81526004016105ed929190611278565b602060405180830381600087803b15801561060757600080fd5b505af115801561061b573d6000803e3d6000fd5b505050506040513d601f19601f8201168201806040525081019061063f91906110c5565b505b50808061064d906114b2565b9150506104ca565b50565b6000805461066590611480565b80601f016020809104026020016040519081016040528092919081815260200182805461069190611480565b80156106de5780601f106106b3576101008083540402835291602001916106de565b820191906000526020600020905b8154815290600101906020018083116106c157829003601f168201915b505050505081565b6000806003600560008573ffffffffffffffffffffffffffffffffffffffff1673ffffffffffffffffffffffffffffffffffffffff1681526020019081526020016000205461073591906113ab565b905080915050919050565b600080600360009054906101000a900473ffffffffffffffffffffffffffffffffffffffff1673ffffffffffffffffffffffffffffffffffffffff166370a08231306040518263ffffffff1660e01b815260040161079e9190611226565b60206040518083038186803b1580156107b657600080fd5b505afa1580156107ca573d6000803e3d6000fd5b505050506040513d601f19601f820116820180604052508101906107ee9190611117565b90508091505090565b6001805461080490611480565b80601f016020809104026020016040519081016040528092919081815260200182805461083090611480565b801561087d5780601f106108525761010080835404028352916020019161087d565b820191906000526020600020905b81548152906001019060200180831161086057829003601f168201915b505050505081565b600660003373ffffffffffffffffffffffffffffffffffffffff1673ffffffffffffffffffffffffffffffffffffffff16815260200190815260200160002060009054906101000a900460ff16610911576040517f08c379a0000000000000000000000000000000000000000000000000000000008152600401610908906112fe565b60405180910390fd5b600260009054906101000a900473ffffffffffffffffffffffffffffffffffffffff1673ffffffffffffffffffffffffffffffffffffffff1663a9059cbb33600560003373ffffffffffffffffffffffffffffffffffffffff1673ffffffffffffffffffffffffffffffffffffffff168152602001908152602001600020546040518363ffffffff1660e01b81526004016109ad929190611278565b602060405180830381600087803b1580156109c757600080fd5b505af11580156109db573d6000803e3d6000fd5b505050506040513d601f19601f820116820180604052508101906109ff91906110c5565b506000600560003373ffffffffffffffffffffffffffffffffffffffff1673ffffffffffffffffffffffffffffffffffffffff168152602001908152602001600020819055506000600660003373ffffffffffffffffffffffffffffffffffffffff1673ffffffffffffffffffffffffffffffffffffffff16815260200190815260200160002060006101000a81548160ff021916908315150217905550565b600080600260009054906101000a900473ffffffffffffffffffffffffffffffffffffffff1673ffffffffffffffffffffffffffffffffffffffff166370a08231306040518263ffffffff1660e01b8152600401610afd9190611226565b60206040518083038186803b158015610b1557600080fd5b505afa158015610b29573d6000803e3d6000fd5b505050506040513d601f19601f82011682018060405250810190610b4d9190611117565b90508091505090565b600360009054906101000a900473ffffffffffffffffffffffffffffffffffffffff1673ffffffffffffffffffffffffffffffffffffffff1663a9059cbb33610b9d610c0f565b6040518363ffffffff1660e01b8152600401610bba929190611278565b602060405180830381600087803b158015610bd457600080fd5b505af1158015610be8573d6000803e3d6000fd5b505050506040513d601f19601f82011682018060405250810190610c0c91906110c5565b50565b6000806003600560003373ffffffffffffffffffffffffffffffffffffffff1673ffffffffffffffffffffffffffffffffffffffff16815260200190815260200160002054610c5e91906113ab565b90508091505090565b60066020528060005260406000206000915054906101000a900460ff1681565b60076020528060005260406000206000915054906101000a900460ff1681565b60008111610cea576040517f08c379a0000000000000000000000000000000000000000000000000000000008152600401610ce1906112de565b60405180910390fd5b600260009054906101000a900473ffffffffffffffffffffffffffffffffffffffff1673ffffffffffffffffffffffffffffffffffffffff166323b872dd3330846040518463ffffffff1660e01b8152600401610d4993929190611241565b602060405180830381600087803b158015610d6357600080fd5b505af1158015610d77573d6000803e3d6000fd5b505050506040513d601f19601f82011682018060405250810190610d9b91906110c5565b5080600560003373ffffffffffffffffffffffffffffffffffffffff1673ffffffffffffffffffffffffffffffffffffffff16815260200190815260200160002054610de79190611355565b600560003373ffffffffffffffffffffffffffffffffffffffff1673ffffffffffffffffffffffffffffffffffffffff16815260200190815260200160002081905550600660003373ffffffffffffffffffffffffffffffffffffffff1673ffffffffffffffffffffffffffffffffffffffff16815260200190815260200160002060009054906101000a900460ff16610edf576008339080600181540180825580915050600190039060005260206000200160009091909190916101000a81548173ffffffffffffffffffffffffffffffffffffffff021916908373ffffffffffffffffffffffffffffffffffffffff1602179055505b6001600660003373ffffffffffffffffffffffffffffffffffffffff1673ffffffffffffffffffffffffffffffffffffffff16815260200190815260200160002060006101000a81548160ff02191690831515021790555050565b60056020528060005260406000206000915090505481565b600080600260009054906101000a900473ffffffffffffffffffffffffffffffffffffffff1673ffffffffffffffffffffffffffffffffffffffff166370a08231336040518263ffffffff1660e01b8152600401610fb09190611226565b60206040518083038186803b158015610fc857600080fd5b505afa158015610fdc573d6000803e3d6000fd5b505050506040513d601f19601f820116820180604052508101906110009190611117565b90508091505090565b6008818154811061101957600080fd5b906000526020600020016000915054906101000a900473ffffffffffffffffffffffffffffffffffffffff1681565b6000813590506110578161156a565b92915050565b60008151905061106c81611581565b92915050565b60008135905061108181611598565b92915050565b60008151905061109681611598565b92915050565b6000602082840312156110ae57600080fd5b60006110bc84828501611048565b91505092915050565b6000602082840312156110d757600080fd5b60006110e58482850161105d565b91505092915050565b60006020828403121561110057600080fd5b600061110e84828501611072565b91505092915050565b60006020828403121561112957600080fd5b600061113784828501611087565b91505092915050565b61114981611405565b82525050565b61115881611417565b82525050565b600061116982611339565b6111738185611344565b935061118381856020860161144d565b61118c81611559565b840191505092915050565b60006111a4601583611344565b91507f43616e6e6f74205374616b65203020746f6b656e7300000000000000000000006000830152602082019050919050565b60006111e4601083611344565b91507f4e6f742061207374616b657220796574000000000000000000000000000000006000830152602082019050919050565b61122081611443565b82525050565b600060208201905061123b6000830184611140565b92915050565b60006060820190506112566000830186611140565b6112636020830185611140565b6112706040830184611217565b949350505050565b600060408201905061128d6000830185611140565b61129a6020830184611217565b9392505050565b60006020820190506112b6600083018461114f565b92915050565b600060208201905081810360008301526112d6818461115e565b905092915050565b600060208201905081810360008301526112f781611197565b9050919050565b60006020820190508181036000830152611317816111d7565b9050919050565b60006020820190506113336000830184611217565b92915050565b600081519050919050565b600082825260208201905092915050565b600061136082611443565b915061136b83611443565b9250827fffffffffffffffffffffffffffffffffffffffffffffffffffffffffffffffff038211156113a05761139f6114fb565b5b828201905092915050565b60006113b682611443565b91506113c183611443565b9250817fffffffffffffffffffffffffffffffffffffffffffffffffffffffffffffffff04831182151516156113fa576113f96114fb565b5b828202905092915050565b600061141082611423565b9050919050565b60008115159050919050565b600073ffffffffffffffffffffffffffffffffffffffff82169050919050565b6000819050919050565b60005b8381101561146b578082015181840152602081019050611450565b8381111561147a576000848401525b50505050565b6000600282049050600182168061149857607f821691505b602082108114156114ac576114ab61152a565b5b50919050565b60006114bd82611443565b91507fffffffffffffffffffffffffffffffffffffffffffffffffffffffffffffffff8214156114f0576114ef6114fb565b5b600182019050919050565b7f4e487b7100000000000000000000000000000000000000000000000000000000600052601160045260246000fd5b7f4e487b7100000000000000000000000000000000000000000000000000000000600052602260045260246000fd5b6000601f19601f8301169050919050565b61157381611405565b811461157e57600080fd5b50565b61158a81611417565b811461159557600080fd5b50565b6115a181611443565b81146115ac57600080fd5b5056fea2646970667358221220f8f5e82ccdfcf71db5b497a40b5a03380c7f60858950c1824f8f809dd893b2cc64736f6c63430008000033",
  "immutableReferences": {},
  "source": "// SPDX-License-Identifier: MIT\r\npragma solidity ^0.8.0;\r\n\r\nimport \"./DaiToken.sol\";\r\nimport \"./GuruToken.sol\";\r\n\r\n\r\ncontract TokenFarm{\r\n\r\n    string public name = \"Saksham Token Farm\";\r\n    string public sign = \"DTF\";\r\n\r\n    DaiToken  daiToken ;\r\n    GuruToken  guruToken;\r\n    address owner;\r\n    mapping(address => uint256) public stakedAmount;\r\n    mapping(address => bool) public isStaked;\r\n    mapping(address => bool) public isStaking;\r\n    address[] public stakers;\r\n\r\n    constructor(address _daiToken , address  _guruToken) public {\r\n        daiToken = DaiToken(_daiToken);\r\n        guruToken = GuruToken(_guruToken);\r\n        owner = msg.sender;\r\n\r\n    }\r\n\r\n    function DaiAmount() public view returns(uint256){\r\n        uint256 daiAmount = daiToken.balanceOf(address(this));\r\n        return daiAmount;\r\n    }\r\n\r\n    function GuruAmount() public view returns(uint256){\r\n        uint256 guruAmount = guruToken.balanceOf(address(this));\r\n        return guruAmount;\r\n    }\r\n\r\n    function MyDaiAmount() public view returns(uint256){\r\n        uint256 mydaiAmount = daiToken.balanceOf(msg.sender);\r\n        return mydaiAmount;\r\n    }\r\n\r\n    function MyGuruAmount() public view returns(uint256){\r\n        uint256 myguruAmount = guruToken.balanceOf(msg.sender);\r\n        return myguruAmount;\r\n    }\r\n    \r\n    function stakeTokens(uint256 _amount ) public payable{\r\n        require(_amount > 0 , \"Cannot Stake 0 tokens\");\r\n        daiToken.transferFrom(msg.sender , address(this), _amount);\r\n        stakedAmount[msg.sender] = stakedAmount[msg.sender] + _amount;\r\n        \r\n        if(!isStaked[msg.sender]){\r\n            stakers.push(msg.sender);\r\n            \r\n        }\r\n        isStaked[msg.sender] = true;\r\n        \r\n\r\n    }\r\n\r\n    function getRewards() public{\r\n        require(msg.sender == owner);\r\n\r\n        for (uint256 i=0 ; i < stakers.length ; i++){\r\n            address receipent = stakers[i];\r\n            if(stakedAmount[receipent] > 0 ){\r\n            guruToken.transfer(receipent, _RewardRatio(receipent));\r\n            }\r\n        }\r\n    }\r\n\r\n    function getMyRewards() public{\r\n        guruToken.transfer(msg.sender , _MyRewardRatio() );\r\n        \r\n    }\r\n\r\n    function _MyRewardRatio() public view returns(uint256){\r\n        uint256 myRewardRatio = stakedAmount[msg.sender]*3;\r\n        return myRewardRatio;\r\n    }\r\n\r\n    function _RewardRatio(address _receipent) public view returns(uint256){\r\n        uint256 rewardRatio = stakedAmount[_receipent]*3;\r\n        return rewardRatio;\r\n    }\r\n\r\n    function unstakeDai() public{\r\n        require(isStaked[msg.sender] , 'Not a staker yet');\r\n        daiToken.transfer(msg.sender, stakedAmount[msg.sender]);\r\n        stakedAmount[msg.sender] = 0;\r\n        isStaked[msg.sender] = false;\r\n\r\n    }\r\n\r\n\r\n\r\n}\r\n\r\n\r\n\r\n",
  "sourcePath": "C:\\Users\\saksh\\defi_tutorial\\src\\contracts\\TokenFarm.sol",
  "compiler": {
    "name": "solc",
    "version": "0.8.0+commit.c7dfd78e.Emscripten.clang"
  },
  "schemaVersion": "3.4.7",
  "updatedAt": "2022-07-11T20:14:44.488Z",
  "networkType": "ethereum",
  "devdoc": {
    "kind": "dev",
    "methods": {},
    "version": 1
  },
  "userdoc": {
    "kind": "user",
    "methods": {},
    "version": 1
  }
}